001020230526221340OB04
0030000000126823280520015    0000412320020230524068979988212022070120221031OM OM                     2023052448034819T                      000000000000000000000020230226200072554
0030000000248209600522748    0000106720020230524028990968622022090120221031AAP AAP                   2023052448034819T                      000000000000000000000020230226200072554
0030000000386664000592031    0000046530020230526658664002312023010120230331DP DP                     2023052680208020T                      000000000000000000000020230226200072554
0030000000498768400581518    0000247550020230526209284998562022010120230228TS TS                     2023052680208020T                      000003616000000000000020230226200072554
0030000000523819780581082    0000100130020230526108811993222021120120230131TP TP                     2023052680208020T                      000000000000000000000020230226200072554
0030000000612969720595067    0000103770020230526078213992162022110120230430UNG                       2023052680208020T                      000000000000000000000020230226200072554
0030000000740550570522398    0000073600020230526089258975322022050120220831OM OM                     2023052648034819EO                     000000000000000000000020230226200072554
004020230526221340OB04     00000007000000011267800
