001020230526221340OB04
00300000001OB040000520015    0000412320020230524068979988212022070120221031PE AP                     2023052448034819T                      000000000000000000000020230226200072554
00300000002OB040000522748    0000106720020230524028990968622022090120221031PE AP                     2023052448034819T                      000000000000000000000020230226200072554
00300000003OB040000592031    0000046530020230526008896996362023010120230331EF OG                     2023052680208020T                      000000000000000000000020230226200072554
00300000004OB040000581518    0000247550020230526209284998562022010120230228EF OG                     2023052680208020T                      000003616000000000000020230226200072554
003000000052223-navsaksnr    0000045700020230526108811993222021120120230131BA OR   2222-navsaksnr    2023052680208020T                      000000000000000000000020230226200072554
00300000006OB040000595067    0000103770020230526078213992162022110120230430EF OG                     2023052680208020T                      000000000000000000000020230226200072554
003000000078889-navsaksnr    0000182000020230526089258975322022050120220831PE AP   8888-navsaksnr    2023052648034819T                      000000000000000000000020230226200072554
00300000008OB040000598557    0000357420020230525218272998872021010120211130PE UT                     2023052544074819EU                     000000000000000211610020230226200072554
003000000092222-saksnrmig    0000903000020230526008734499202022060720220707FA FE   2222-migrert      2023052680208020T                      000000000000000000000020230226200072554
003000000018888-saksnrmig    0000379440020230526158509997802021020120230131BA OR   8888-migrert      2023052680208020T                      000000000000000000000020230226200072554
004020230526221340OB04     00000010000000028206100