001020230526221340OB04
00300000001OB040000000001    0000000010120230526268758959302023022120230331FA FØ   OB040000520015    2023052680208020T                      0000000000000000000000
00300000002OB040000000002    0000000010220230525168114493462021010120211031PE UT   OB040000522748    2023052544074819EU                     0000000000000003280600
00300000003OB040000000003    0000000010320230526128656984432022100120230430EF OG   OB040000592031    2023052680208020T                      0000000000000000000000
00300000004OB040000000004    0000000000020230525228597997562021050120211231PE UT   OB040000581518    2023052544074819EU                     0000000000000002069500
00300000005OB040000000005    0000000000020230526148201488362023030120230331FA FØ   OB040000581082    2023052680208020T ANNET                0000000000000000000000
00300000006OB040000000006    0000000010620230526118299998992020070120230131BA OR   OB040000595067    2023052680208020T                      0000000000000000000000
00300000007OB040000000007    0000000010720230526048245987842022110120230430EF OG   OB040000522398    2023052680208020T                      0000000000000000000000
00300000008OB040000000008    0000000010820230526118691972052023030120230430EF BT   OB040000598557    2023052680208020T                      0000000000000000000000
00300000009OB040000000009    0000000010920230526229079951122022090120221231BA OR   OB040000592258    2023052680208020T                      0000000000000000000000
00300000010OB040000000010    0000000000020230525318777955382021010120211031PE UT   OB040000581050    2023052544074819EU                     0000000000000002107800
00300000011OB040000000011    0000000011120230526148958969272022060120220630PE AP   OB040000598765    2023052648034819T                      0000000000000000000000
00300000012OB040000000012    0000000000020230526138715472082021120120220331BA OR   OB040000581801    2023052680208020T ANNET                0000000000000000000000
00300000013OB040000000013    0000000011320230526268365955122022070120221130BA OR   OB040000584984    2023052680208020T                      0000000000000000000000
00300000014OB040000000014    0000000011420230526158128496512022082520221231FA FØ   OB040000593053    2023052680208020T                      0000000000000000000000
00300000015OB040000000015    0000000000020230526028231488712022110120230213FA FØ   OB040000598746    2023052680208020T                      0000000000000000000000
00300000016OB040000000016    0000000011620230525268857994172021010120211231PE UT   OB040000587479    2023052544024819EU                     0000000000000001371500
00300000017OB040000000017    0000000011720230525278749969182021010120211231PE UT   OB040000590745    2023052544164819EU                     0000000000000003446500
00300000018OB040000000018    0000000011820230526038667993252022100120221130BA OR   OB040000566934    2023052680208020T                      0000000000000000000000
00300000019OB040000000019    0000000000020230526038746963812022070120221231BA OR   OB040000570881    2023052680208020T                      0000000000000000000000
00300000020OB040000000020    0000000012020230526098896996362022110120230131BA OR   OB040000584670    2023052680208020T                      0000000000000000000000
004020230526221340OB04     00000020000000000154500
OB040000520015
OB040000522748
