001020230526221340OB04
00300000001OB040000520015    0000412320020230524068979988212022070120221031PE AP                     2023052448034819T                      0000000000000000000000
00300000002OB040000522748    0000106720020230524028990968622022090120221031PE AP                     2023052448034819T                      0000000000000000000000
00300000003OB040000592031    0000046530020230526098896996362023010120230331EF OG                     2023052680208020T                      0000000000000000000000
00300000004OB040000581518    0000247550020230526209284998562022010120230228EF OG                     2023052680208020T                      0000036160000000000000
00300000005OB040000581082    0000100130020230526108811993222021120120230131BA OR                     2023052680208020T                      0000000000000000000000
00300000006OB040000595067    0000103770020230526078213992162022110120230430EF OG                     2023052680208020T                      0000000000000000000000
00300000007OB040000522398    0000073600020230526089258975322022050120220831PE AP                     2023052648034819T                      0000000000000000000000
00300000008OB040000598557    0000357420020230525218272998872021010120211130PE UT                     2023052544074819EU                     0000000000000002116100
00300000009OB040000592258    0000903000020230526138734499202022060720220607FA FE                     2023052680208020T                      0000000000000000000000
00300000010OB040000581050    0000379440020230526158509997802021020120230131BA OR                     2023052680208020T                      0000000000000000000000
00300000011OB040000598765    0000137510020230526078714489942022110120221205FA FØ                     2023052680208020T                      0000000000000000000000
00300000012OB040000581801    0000252960020230526088114971942021020120230131BA OR                     2023052680208020T                      0000000000000000000000
00300000013OB040000584984    0000337280020230526309279991172020070120230228BA OR                     2023052680208020T                      0000000000000000000000
00300000014OB040000593053    0000344600020230526158201496692020080120230331BA OR                     2023052680208020T                      0000000000000000000000
00300000015OB040000598746    0000422940020230526308569987502023030920230430FA FØ                     2023052680208020T                      0000000000000000000000
00300000016OB040000587479    0000084320020230526218926494022022070120230228BA OR                     2023052680208020T                      0000000000000000000000
00300000017OB040000590745    0000903000020230526168512991262022100320221003FA FE                     2023052680208020T                      0000000000000000000000
00300000018OB040000566934    0000063240020230526308786984912022100120221130BA OR                     2023052680208020T                      0000000000000000000000
00300000019OB040000570881    0000133940020230526188948974962021090120220430BA OR                     2023052680208020T                      0000000000000000000000
00300000020OB040000584670    0000063240020230526278119497742023010120230228BA OR                     2023052680208020T                      0000000000000000000000
00300000021OB040000590267    0000414870020230526018259968492020020120230331BA OR                     2023052680208020T                      0000000000000000000000
00300000022OB040000581521    0000193420020230526209221985362022100120230228EF OG                     2023052680208020T                      0000000000000000000000
00300000023OB040000596193    0000048800020230526248883987472023040120230430EF OG                     2023052680208020T                      0000000000000000000000
00300000024OB040000598558    0000031760020230525099285966292021080120211130PE UT                     2023052544074819EU                     0000000000000002586446
00300000025OB040000473031    0000212570020230526229131492312021050120220228PE UT                     2023052644114819T                      0000000000000003087900
00300000026OB040000583765    0000412420020230526119283976202020100120230228BA OR                     2023052680208020T                      0000000000000000000000
00300000027OB040000594996    0001360970020230526138422488542020070120230131PE AP                     2023052648034819T                      0000000000000000000000
00300000028OB040000596831    0000090710020230526298311988242023040120230430EF OG                     2023052680208020T                      0000000000000000000000
00300000029OB040000596192    0000667270020230526268758959302023022120230331FA FØ                     2023052680208020T                      0000000000000000000000
00300000030OB040000598559    0000110730020230525168114493462021010120211031PE UT                     2023052544074819EU                     0000000000000003280600
00300000031OB040000595681    0000193200020230526018907997912023020120230430BA OR                     2023052680208020T                      0000000000000000000000
00300000032OB040000595755    0000193970020230526128656984432022100120230430EF OG                     2023052680208020T                      0000000000000000000000
00300000033OB040000595897    0000175550020230526159012492422023020120230430EF OG                     2023052680208020T                      0000000000000000000000
00300000034OB040000598556    0000020860020230525228597997562021050120211231PE UT                     2023052544074819EU                     0000000000000002069500
00300000035OB040000592759    0000000000020230526148201488362023030120230331FA FØ   OB040000592759    2023052680208020T ANNET                0000000000000000000000
00300000036OB040000573209    0000242420020230526118299998992020070120230131BA OR                     2023052680208020T                      0000000000000000000000
00300000037OB040000596158    0000098390020230526048245987842022110120230430EF OG                     2023052680208020T                      0000000000000000000000
00300000038OB040000596148    0000065400020230526118691972052023030120230430EF BT                     2023052680208020T                      0000000000000000000000
00300000039OB040000590851    0000204650020230526068520995752022100120230331BA OR                     2023052680208020T                      0000000000000000000000
00300000040OB040000570877    0000042160020230526229079951122022090120221231BA OR                     2023052680208020T                      0000000000000000000000
00300000041OB040000598553    0000403530020230525318777955382021010120211031PE UT                     2023052544074819EU                     0000000000000002107800
00300000042OB040000498376    0000124070020230526148958969272022060120220630PE AP                     2023052648034819T                      0000000000000000000000
00300000043OB040000596501    0000248140020230526318862977882022110120230430EF OG                     2023052680208020T                      0000000000000000000000
00300000044OB040000595715    0000134100020230526158172994392022070120230430BA OR                     2023052680208020T                      0000000000000000000000
00300000045OB040000590989    0000052990020230526138823486732022110120230331BA OR                     2023052680208020T                      0000000000000000000000
00300000046OB040000596759    0000037690020230526228799987122023040120230430EF OG                     2023052680208020T                      0000000000000000000000
00300000047OB040000479803    0000000000020230526138715472082021120120220331BA OR   OB040000479803    2023052680208020T ANNET                0000000000000000000000
00300000048OB040000568485    0000167600020230526268365955122022070120221130BA OR                     2023052680208020T                      0000000000000000000000
00300000049OB040000582488    0000031620020230526298646990712022110120230131BA OR                     2023052680208020T                      0000000000000000000000
00300000050OB040000571518    0001075790020230526158128496512022082520221231FA FØ                     2023052680208020T                      0000000000000000000000
00300000051OB040000568484    0000163800020230526238769971262022090120221130BA OR                     2023052680208020T                      0000000000000000000000
00300000052OB040000581061    0000126480020230526288297982302022060120221130BA OR                     2023052680208020T                      0000000000000000000000
00300000053OB040000598551    0000057400020230525208856990582021110120211231PE UT                     2023052544024819EU                     0000000000000003214300
00300000054OB040000596112    0000113480020230526169120999582022100120230430EF OG                     2023052680208020T                      0000000000000000000000
00300000055OB040000581666    0000005270020230526078951987862023010120230131BA OR                     2023052680208020T                      0000000000000000000000
00300000056OB040000573568    0000147560020230526159090989602021110120221231BA OR                     2023052680208020T                      0000000000000000000000
00300000057OB040000586822    0000581280020230526308491997532021020120221231PE AP                     2023052648084819T                      0000000000000000000000
00300000058OB040000596100    0000074310020230526298348989162023030120230430EF OG                     2023052680208020T                      0000000000000000000000
00300000059OB040000595400    0000794960020230526308462957782022090120230430EF OG                     2023052680208020T                      0000100530000000000000
00300000060OB040000581511    0000189720020230526069253988782022050120230131BA OR                     2023052680208020T                      0000000000000000000000
00300000061OB040000578656    0000094860020230526098593975112020080120210430BA OR                     2023052680208020T                      0000000000000000000000
00300000062OB040000568514    0000094860020230526248348975512022030120221130BA OR                     2023052680208020T                      0000000000000000000000
00300000063OB040000595895    0000069490020230526238201974022022060120230430EF OG                     2023052680208020T                      0000000000000000000000
00300000064OB040000593028    0000373570020230526058154996052020080120230331BA OR                     2023052680208020T                      0000000000000000000000
00300000065OB040000579867    0000066520020230526148523482092021090120230131PE AP                     2023052648154819T                      0000000000000000000000
00300000066OB040000592825    0001126320020230526028231488712022110120230213FA FØ                     2023052680208020T                      0000000000000000000000
00300000067OB040000596155    0000062560020230526318100998392023010120230430EF OG                     2023052680208020T                      0000000000000000000000
00300000068OB040000598548    0000458970020230525298810490482021020120210831PE UT                     2023052544024819EU                     0000000000000003781094
00300000069OB040000577347    0000523640020230526178172962892018110120221231BA OR                     2023052680208020T                      0000000000000000000000
00300000070OB040000598554    0000059070020230525278487997132021010120211231PE UT                     2023052544034819EU                     0000000000000001151900
00300000071OB040000595760    0000101500020230526018218490002022110120230430BA OR                     2023052680208020T                      0000000000000000000000
00300000072OB040000595674    0000256540020230526059048955062023030120230430EF OG                     2023052680208020T                      0000000000000000000000
00300000073OB040000596783    0000135270020230526218515497462023020120230430EF OG                     2023052680208020T                      0000020490000000000000
00300000074OB040000565103    0000025300020230526309184996752022090120221130BA OR                     2023052680208020T                      0000000000000000000000
00300000075OB040000566312    0000094860020230526028546971562022030120221130BA OR                     2023052680208020T                      0000000000000000000000
00300000076OB040000590686    0000307990020230526189260976752017090120230331PE AP                     2023052648174819T                      0000041166000000000000
00300000077OB040000478037    0000252480020230526198450965812021110120220331PE AF                     2023052648084819T                      0000000000000000000000
00300000078OB040000478050    0000775900020230526038977991612021110120220331PE AP                     2023052648084819T                      0000000000000000000000
00300000079OB040000581845    0000068510020230526158194999312022010120230131BA OR                     2023052680208020T                      0000000000000000000000
00300000080OB040000598555    0001480180020230525158799998952021010120211031PE UT                     2023052544034819EU                     0000000000000003247500
00300000081OB040000499708    0000005100020230526239135499102020070120200731PE AP                     2023052648034819T                      0000000718000000000000
00300000082OB040000572681    0000021080020230526138212993002022090120221031BA OR                     2023052680208020T                      0000000000000000000000
00300000083OB040000595716    0000275340020230526248172967572022080120230430BA OR                     2023052680208020T                      0000000000000000000000
00300000084OB040000596779    0000406210020230526288922482752022120120230430EF OG                     2023052680208020T                      0000000000000000000000
00300000085OB040000581804    0000295120020230526158362979942020080120221130BA OR                     2023052680208020T                      0000000000000000000000
00300000086OB040000572886    0000413520020230526118255974782020070120221231BA OR                     2023052680208020T                      0000000000000000000000
00300000087OB040000478244    0000126930020230526178398993782022030120220331PE AP                     2023052648034819T                      0000000000000000000000
00300000088OB040000596522    0000079420020230526018981993782023020120230430EF OG                     2023052680208020T                      0000000000000000000000
00300000089OB040000583712    0000223130020230526209218983722023020120230228PE AP                     2023052648154819T                      0000000000000000000000
00300000090OB040000583138    0000265300020230526018542974962023020120230228PE AP                     2023052648154819T                      0000000000000000000000
00300000091OB040000582345    0000080860020230526298781995942022010120230131BA OR                     2023052680208020T                      0000000000000000000000
00300000092OB040000598549    0000038110020230525128824498722021050120211231PE UT                     2023052544074819EU                     0000000000000002235032
00300000093OB040000596506    0000077460020230526318736491892022100120230430EF OG                     2023052680208020T                      0000000000000000000000
00300000094OB040000590039    0000326740020230526058354973312020080120230228BA OR                     2023052680208020T                      0000000000000000000000
00300000095OB040000590041    0001269700020230526158373978522012050120221130BA OR                     2023052680208020T                      0000000000000000000000
00300000096OB040000596497    0000102680020230526139103489782023010120230430EF OG                     2023052680208020T                      0000000000000000000000
00300000097OB040000598552    0000251490020230525268857994172021010120211231PE UT                     2023052544024819EU                     0000000000000001371500
00300000098OB040000598550    0000571710020230525278749969182021010120211231PE UT                     2023052544164819EU                     0000000000000003446500
00300000099OB040000564250    0000054600020230526038667993252022100120221130BA OR                     2023052680208020T                      0000000000000000000000
00300000100OB040000580679    0000100560020230526038746963812022070120221231BA OR                     2023052680208020T                      0000000000000000000000
00300000101OB040000580681    0000063240020230526098896996362022110120230131BA OR                     2023052680208020T                      0000000000000000000000
004020230526221340OB04     00000101000000264591740
